:09022800010A04010800010900AB
:03001B0002014E91
:10014E00C0E0C0D0758DFC758B180509E509B406A5
:10015E0003750900E5B030E003750802E5B030E440
:09016E0003750801D0D0D0E03285
:0D021B00C293C295C292C290C294C29122B9
:10017700E50A2401FFE433FED3E5099FEE6480F826
:10018700748098500DC293D295D292C290D294D2D5
:06019700912212021B225E
:10000300E509D3950A500DC293D295D292C290C2FC
:0800130094D2912212021B227B
:10019D00E50A14FFE509D39F500DC293D295D29273
:0B01AD00C290C294D2912212021B22C9
:1001D300E509D3950A500DC293D295C292C290D22B
:0801E30094C2912212021B22BA
:1001B800E50A14FFE509D39F500DC293D295C29268
:0B01C800C290D294C2912212021B22AE
:1001EB00E509D3950A500DD293C295D292C290D203
:0801FB0094D2912212021B2292
:10020300E509D3950A500DC293D295C292D290D2EA
:0802130094D2912212021B2279
:10001E00438910758DFC758B18D2ABD2AFD28EE59D
:10002E00B064E26011E5B064E3600BE5B064F260C9
:10003E0005E5B0B4FC0512000380E4E5B064E660AB
:10004E0005E5B0B4E70512019D80D4E5B064E86023
:10005E0011E5B064E9600BE5B064F86005E5B0B495
:10006E00FC051201D380B8E5B064EC6005E5B0B4D0
:10007E00ED051201B880A8E5B0B4F002801BE5B022
:10008E00B4E1028023E5B0B4FF0512021B8090E5B7
:10009E00B0B4E00AE508B401051202038081E5B0B0
:1000AE00B4E00BE508B402061201EB02002D1201BA
:0400BE007702002D98
:030000000200C239
:0C00C200787FE4F6D8FD75810A02010980
:1000CE0002001EE493A3F8E493A34003F68001F22A
:1000DE0008DFF48029E493A3F85407240CC8C33333
:1000EE00C4540F4420C8834004F456800146F6DF02
:1000FE00E4800B0102040810204080900228E47E68
:10010E00019360BCA3FF543F30E509541FFEE493F6
:10011E00A360010ECF54C025E060A840B8E493A3BD
:10012E00FAE493A3F8E493A3C8C582C8CAC583CAE8
:10013E00F0A3C8C582C8CAC583CADFE9DEE780BEA0
:0102310000CC
:00000001FF
