:06023800010A00010B00A9
:0801DA008F0F8E0E8D0D8C0CB1
:0A01E200EF1FAC0670011E4C70F612
:0101EC0022F0
:1001A000D2B6D2B5C2B4D2B3D2B2438901758CFFF4
:0E01B000758ABED2AFD2A9D28CD294D2902240
:03000B000200F000
:1000F000C0E0C0D0050A050BE50AD395095004D22B
:10010000908002C290E50AD394644005D294750AA7
:1001100000E50BD395085004D2948002C294E50BFD
:10012000D394644005D294750B00758CFF758ABE1C
:05013000D0D0D0E03248
:0F01ED0075090675082DC293D295C292D2902241
:0F01FC00750928750806C293D295C292D2902237
:0F020B0075091975081EC293D295D292C290221E
:0F021A0075091975081ED293C295C292D290220F
:0F02290075092875082DC293D295C292D29022E2
:10009A0012022920B202802420B602802520B5103F
:1000AA0020B5421201ED20B202801120B6F2801270
:1000BA0020B31220B32F1201FC20B2030201352013
:1000CA00B6F102016C30B61D30B51A30B41730B330
:1000DA001430B21112022930B30512021A80F82024
:0500EA00B40312009AAE
:0100EF0022EE
:100135001202297FA07E097D017C001201DA20B41C
:100145001612021A7F787E697D007C001201DA3072
:10015500B4F230B31180FB30B40C12021A20B3FD97
:0601650020B20312009A13
:01016B002271
:10016C0020B60520B2FA800E7FF47E017D007C0063
:10017C001201DA20B20302013530B40630B5032087
:10018C00B30302009A30B50512020B80F820B603B7
:03019C0012009AB4
:01019F00223D
:1001BE0020B20302013520B60302016C20B5030202
:0C01CE0001ED20B3030201FC12009A2294
:080003001201A01201BE80FBF6
:0300000002000EED
:0C000E00787FE4F6D8FD75810F020055E4
:10001A00020003E493A3F8E493A34003F68001F2F9
:10002A0008DFF48029E493A3F85407240CC8C333E7
:10003A00C4540F4420C8834004F456800146F6DFB6
:10004A00E4800B0102040810204080900238E47E0C
:10005A00019360BCA3FF543F30E509541FFEE493AB
:10006A00A360010ECF54C025E060A840B8E493A372
:10007A00FAE493A3F8E493A3C8C582C8CAC583CA9D
:10008A00F0A3C8C582C8CAC583CADFE9DEE780BE55
:01023E0000BF
:00000001FF
