:1002DD00C0F9A4B0999282F8809040792430191217
:0402ED000278001083
:1002BB00011202010800010900010A0001110001ED
:1002CB000B00010C00010D00010E00010F000110CD
:0102DB000022
:1001D300E50A700BE5109002DD93F58075A01FE52D
:1001E3000AB4010BE50F9002E793F58075A02FE5A4
:1001F3000AB4020BE50E9002DD93F58075A037E596
:100203000AB4030BE50D9002E793F58075A03BE577
:100213000AB4040BE50C9002DD93F58075A03DE56F
:100223000AB4050BE50B9002DD93F58075A03E2221
:0B000E0075A01FEF9002DD93F580222B
:03000B00020233BB
:10023300C0E0C0D0758C3C758AB00509E509B414DB
:1002430007050B0511750900E511B40603751100C7
:10025300E50BB40A05050C750B00E50CB4060505A2
:100263000D750C00E50DB40A05050E750D00E50EC0
:10027300B40605050F750E00E50FB40A05051075E4
:0F0283000F00E510B40A03751000D0D0D0E032A0
:03001B000202924C
:10029200C0E0C0D0758DFC758B18050AE50AB4065E
:1002A20003750A00E5B030E003750802E5B030E4FA
:0902B20003750801D0D0D0E03240
:10001E0075891175A88AD28C758C3C758AB0D28E72
:10002E00758DFC758B18E5B064E2601DE5B064E378
:10003E006017E5B064E66011E5B064E7600BE5B00B
:10004E0064F26005E5B0B4FC0DE50AD39512505587
:10005E007590C6020100E5B064E6601DE5B064E887
:10006E006017E5B064E96011E5B064EC600BE5B0D3
:10007E0064ED6005E5B0B4F80EE50AD395125005AF
:10008E007590F0806D8068E5B0B4F00BE50AD395FD
:10009E00125002802F8058E5B0B4E10BE50AD395DB
:1000AE0012500280378048E5B0B4FF07E50AD395B9
:1000BE0012803CE5B0B4E013E508B4010EE50AD3B6
:1000CE00951250057590F380298024E5B0B4E013A5
:1000DE00E508B4020EE50AD3951250057590DE8040
:1000EE0011800CE50AD3951250057590F6800375B4
:1000FE0090C0209716309613E4F50BF50CF50DF520
:10010E000EF50FF5101201D302003430971420961D
:10011E0011E50AD3951250057590F6800E7590C0B4
:10012E00800920970E20960B851112AF1212000E29
:09013E000200341201D302003466
:03000000020147B3
:0C014700787FE4F6D8FD75811202018E6D
:1001530002001EE493A3F8E493A34003F68001F2A4
:1001630008DFF48029E493A3F85407240CC8C333AD
:10017300C4540F4420C8834004F456800146F6DF7C
:10018300E4800B01020408102040809002BBE47E4F
:10019300019360BCA3FF543F30E509541FFEE49371
:1001A300A360010ECF54C025E060A840B8E493A338
:1001B300FAE493A3F8E493A3C8C582C8CAC583CA63
:1001C300F0A3C8C582C8CAC583CADFE9DEE780BE1B
:0102DC000021
:00000001FF
