:0B016600C0F9A4B0999282F88090FFCD
:0D015800070A00000000000000020800007F
:040136007F017E00C7
:10013A00D3EF9400EE940040147D737C00ED1D70A3
:0D014A00011CED4C70F7EF1F70E61E80E306
:010157002285
:1000EE00900166E493F58075A0FE120136A3E493A9
:1000FE00F58075A0FD120136A3E493F58075A0FB83
:10010E00120136A3E493F58075A0F7120136A3E42D
:10011E0093F58075A0EF120136A3E493F58075A0D8
:08012E00DF12013675A0FF226B
:09017100C293C295C292C2902211
:09017A00D293C295C292D29022E8
:09018300C293D295D292C29022DF
:10008F007580FF75A0FF7590FFE4F508F509C2A60E
:10009F00C2A71200EE0509E50970020508C39464B2
:1000AF00E5089400500512018380E3C3E50994C865
:1000BF00E50894005002801BC3E509942CE50894D1
:1000CF0001500512017A80C6C3E5099490E50894A2
:0F00DF0001500512017180B6E4F508F50980AFF4
:03000000020003F8
:0C000300787FE4F6D8FD75811002004AF9
:10000F0002008FE493A3F8E493A34003F68001F278
:10001F0008DFF48029E493A3F85407240CC8C333F2
:10002F00C4540F4420C8834004F456800146F6DFC1
:10003F00E4800B0102040810204080900158E47EF8
:10004F00019360BCA3FF543F30E509541FFEE493B6
:10005F00A360010ECF54C025E060A840B8E493A37D
:10006F00FAE493A3F8E493A3C8C582C8CAC583CAA8
:10007F00F0A3C8C582C8CAC583CADFE9DEE780BE60
:010165000099
:00000001FF
